:100000000C945D000C9485000C9485000C94850084
:100010000C9485000C9485000C9485000C9485004C
:100020000C9485000C9485000C9485000C94BD06FE
:100030000C9485000C9485000C9485000C9485002C
:100040000C9400050C9485000C9470050C944A05E2
:100050000C9485000C9485000C9485000C9485000C
:100060000C94A2050C948500000000080002010019
:100070000003040700000000000000000000000072
:10008000250028002B0000000000240027002A0083
:10009000040404040404040402020202020203032E
:1000A0000303030301020408102040800102040836
:1000B0001020010204081020790711241FBECFEF81
:1000C000D8E0DEBFCDBF11E0A0E0B1E0EAE1F6E1AB
:1000D00002C005900D92A839B107D9F722E0A8E92E
:1000E000B1E001C01D92A43FB207E1F710E0CDE5F9
:1000F000D0E004C02197FE010E94050BCC35D1074A
:10010000C9F70E9403080C940B0B0C94000090E0BC
:10011000FC01EC55FF4F249180579F4FFC018491C7
:10012000882399F090E0880F991FFC01EA57FF4F50
:10013000A591B491FC01E458FF4F859194918FB73C
:10014000F894EC91E22BEC938FBF0895CF92DF925D
:10015000EF92FF92DC01A03282E0B807D4F5A53B14
:10016000B10514F0A4EBB0E04091DA0228E830E0E9
:10017000241B310947FD3395220F331F220F331FF4
:100180006901330FEE08FF084091DB0228E532E0F9
:10019000241B310947FD3395220F331F220F331FD4
:1001A000032E000C440B550B2C193D094E095F0919
:1001B000B7FF02C0B0E0A0E00E94C00A24EB30E02C
:1001C00040E050E00E94960AC20ED31EE41EF51EC7
:1001D000D601E091D902EC3080F52091DA0288E86E
:1001E00090E0821B910927FD9395880F991F880F36
:1001F000991FA817B90784F02091DB0288E592E0E7
:10020000821B910927FD9395880F991F880F991FCD
:10021000A817B9070CF4CD010297880F991F4FB7A3
:10022000F8942E2F30E0F901EE0FFF1FE20FF31FBD
:10023000EC54FD4F928381834FBFFF90EF90DF908E
:10024000CF90089590E0FC01E859FF4F2491FC0104
:10025000EC55FF4F3491FC01E057FF4FE491EE2342
:10026000C9F0222339F0233001F1A8F4213019F12B
:10027000223029F1F0E0EE0FFF1FE458FF4FA59167
:10028000B4918FB7F894EC91611126C030953E235C
:100290003C938FBF08952730A9F02830C9F024304F
:1002A00049F7809180008F7D03C0809180008F7717
:1002B00080938000DFCF84B58F7784BDDBCF84B59A
:1002C0008F7DFBCF8091B0008F778093B000D2CF2D
:1002D0008091B0008F7DF9CF3E2BDACF3FB7F894F5
:1002E0008091130290911402A0911502B091160210
:1002F00026B5A89B05C02F3F19F00196A11DB11D81
:100300003FBFBA2FA92F982F8827BC01CD01620FBC
:10031000711D811D911D42E0660F771F881F991F77
:100320004A95D1F708958F929F92AF92BF92CF9244
:10033000DF92EF92FF924B015C010E946E016B0114
:100340007C010E946E016C197D098E099F09683E2F
:10035000734081059105A8F321E0821A9108A10854
:10036000B10888EEC80E83E0D81EE11CF11C811490
:100370009104A104B10429F7FF90EF90DF90CF9092
:10038000BF90AF909F908F900895AF92BF92CF9201
:10039000DF92EF92FF920F931F93CF93DF936C0145
:1003A0007B018B01040F151FEB015E01AE18BF0826
:1003B000C017D10759F06991D601ED91FC910190D8
:1003C000F081E02DC6010995892B79F7C501DF91F0
:1003D000CF911F910F91FF90EF90DF90CF90BF9042
:1003E000AF900895FC01538D448D252F30E0842F6C
:1003F00090E0821B930B541710F0CF96089501974D
:100400000895FC01918D828D981761F0A28DAE0F39
:10041000BF2FB11D5D968C91928D9F5F9F73928FC0
:1004200090E008958FEF9FEF0895FC01918D828DEC
:10043000981731F0828DE80FF11D858D90E00895B9
:100440008FEF9FEF0895FC01918D228D892F90E011
:10045000805C9F4F821B91098F739927089587E1D4
:1004600092E00E94230221E0892B09F420E0822FF0
:10047000089580E090E0892B29F00E942F028111DD
:100480000C9400000895FC01A48DA80FB92FB11D94
:10049000A35ABF4F2C91848D90E001968F739927BA
:1004A000848FA689B7892C93A089B1898C91837098
:1004B00080648C93938D848D981306C00288F38991
:1004C000E02D80818F7D80830895EF92FF920F93BE
:1004D0001F93CF93DF93EC0181E0888F9B8D8C8DF0
:1004E00098131AC0E889F989808185FF15C09FB7E4
:1004F000F894EE89FF896083E889F98980818370A7
:10050000806480839FBF81E090E0DF91CF911F9155
:100510000F91FF90EF900895F62E0B8D10E00F5F76
:100520001F4F0F731127E02E8C8D8E110CC00FB64C
:1005300007FCFACFE889F989808185FFF5CFCE01E4
:100540000E944302F1CFEB8DEC0FFD2FF11DE35A1A
:10055000FF4FF0829FB7F8940B8FEA89FB89808167
:100560008062CFCFCF93DF93EC01888D8823B9F0E1
:10057000AA89BB89E889F9898C9185FD03C08081AE
:1005800086FD0DC00FB607FCF7CF8C9185FFF2CF2B
:10059000808185FFEDCFCE010E944302E9CFDF913C
:1005A000CF91089508952091C001260F3327331F5E
:1005B00021323105ECF42091E401FC0190E080E06F
:1005C000243069F082E00895A091C0012191AC012E
:1005D00040565E4FA40FB52FB11D2C930196861780
:1005E00098F38091C001680F6093C00180E0089586
:1005F00081E0089508958FEF9FEF08958FEF9FEFAB
:1006000008958091990190E09195819591090895BF
:10061000CF93DF93CB01EA01642F0E94D302CE0176
:10062000DF91CF910895CF93DF931F92CDB7DEB7BF
:10063000698361E0CE0101960E94D30281E090E0DF
:100640000F90DF91CF91089590E080E00895CF93CF
:10065000DF93EC0160E08E810E94220161E08E81D7
:100660000E94220160E08E810E9422018BE891E0CD
:100670000197F1F7DF91CF910895CF92DF92EF923A
:10068000FF920F931F93CF93DF936C017C0187E060
:10069000E80EF11CD0E0C0E0062F10E0B8010C2EEF
:1006A00002C0759567950A94E2F76170F701819130
:1006B0007F010E9422012196C430D10579F7C6013D
:1006C000DF91CF911F910F91FF90EF90DF90CF902E
:1006D0000C942703CF92DF92EF92FF920F931F9318
:1006E000CF93DF93EC01F62E642F8C810E942201C0
:1006F0008D818F3F19F060E00E9422010F2D10E0E4
:100700008F8584FF25C06E0187E0C80ED11CF12CB7
:10071000E12CB8010E2C02C0759567950A94E2F79A
:100720006170F60181916F010E942201FFEFEF1AC3
:10073000FF0A88E0E816F10461F7CE01DF91CF915E
:100740001F910F91FF90EF90DF90CF900C942703B3
:10075000B80184E0759567958A95E1F7CE010E940E
:100760003D036F2DCE01DF91CF911F910F91FF902F
:10077000EF90DF90CF900C943D0340E0682F8CED1C
:1007800092E00C946A0381E00E94BD038BE39FE139
:100790000197F1F70895CF93DF93823029F4909178
:1007A000EB0298609093EB028093EF021092F002BC
:1007B00080E48093F10280E18093F20280E58093EF
:1007C000F3028091E0020E9487008091E1028F3F56
:1007D00011F00E9487008091E2020E948700CCED18
:1007E000D2E09E012C5D32408091EB0284FD0AC074
:1007F00084E090E02196281739073CF48E810E940E
:100800008700EFCF88E090E0F5CF8BE39DE0019784
:10081000F1F760E08091E0020E94220160E08091A7
:10082000E2020E9422018091E1028F3F19F060E014
:100830000E9422018091EB0284FD34C063E08CEDC4
:1008400092E00E943D03CBE4D6E4CE010197F1F79C
:1008500063E08CED92E00E943D032197F1F763E0A5
:100860008CED92E00E943D0383E592E00197F1F761
:1008700062E08CED92E00E943D038091EB02806289
:100880000E94BD0384E08093EC028CE00E94BD03D3
:100890000E94C30382E08093ED0286E0DF91CF9156
:1008A0000C94BD0380620E94BD038BE496E4019723
:1008B000F1F78091EB0280620E94BD0383E592E034
:1008C0000197F1F78091EB0280620E94BD03D5CFC2
:1008D0009091EF02891710F08FEF890FE82FF0E069
:1008E000E452FD4F848980680C94BD0341E00E946E
:1008F0006A0381E090E00895FB0101900020E9F790
:100900003197AF01461B570BDC01ED91FC91028042
:10091000F381E02D09941F93CF93DF9385ED8093AE
:10092000BC0080919C0190919D01A0919E01B0918D
:100930009F010796A11DB11D23E0B695A795979538
:1009400087952A95D1F72091BC0024FD03C0109211
:10095000E40152C040919C0150919D0160919E0123
:1009600070919F01452B462B472B69F30097A105FA
:10097000B10541F02AE22A95F1F700C00197A109DB
:10098000B109E1CF80919B01C1E0C0939A01882316
:1009900099F1D091B8001091BA008091BC008A7B87
:1009A0008093BC0060E082E10E94220160E083E16C
:1009B0000E9422011092E401C093E6011092E50129
:1009C00061E082E10E94220161E083E10E94220154
:1009D0008091B9008E7F8093B9008091B9008D7F9E
:1009E0008093B90088E48093B80085E48093BC00CC
:1009F0001093BA00D093B800DF91CF911F91089562
:100A00001F920F920FB60F9211242F933F938F9343
:100A10009F93AF93BF9380910F0290911002A0918A
:100A20001102B091120230910E0223E0230F2D37F4
:100A300058F50196A11DB11D20930E0280930F025F
:100A400090931002A0931102B093120280911302AE
:100A500090911402A0911502B09116020196A11D69
:100A6000B11D8093130290931402A0931502B093CA
:100A70001602BF91AF919F918F913F912F910F904F
:100A80000FBE0F901F90189526E8230F0296A11D08
:100A9000B11DD2CF1F920F920FB60F9211242F9338
:100AA0003F934F935F936F937F938F939F93AF93F6
:100AB000BF93EF93FF9387E192E00E944302FF917F
:100AC000EF91BF91AF919F918F917F916F915F91C6
:100AD0004F913F912F910F900FBE0F901F9018953F
:100AE0001F920F920FB60F9211242F938F939F9303
:100AF000EF93FF93E0912702F09128028081E0912B
:100B00002D02F0912E0282FD1BC090818091300257
:100B10008F5F8F7320913102821741F0E091300294
:100B2000F0E0E95EFD4F958F80933002FF91EF91E9
:100B30009F918F912F910F900FBE0F901F9018953E
:100B40008081F4CF1F920F920FB60F9211242F9332
:100B50003F934F935F936F937F938F939F93AF9345
:100B6000BF93EF93FF938091B900887F803609F49B
:100B70004AC0F0F5883209F4A5C018F5803109F4AF
:100B800099C0B8F4882309F4F5C0883009F492C0FC
:100B9000FF91EF91BF91AF919F918F917F916F9155
:100BA0005F914F913F912F910F900FBE0F901F902B
:100BB0001895883109F486C0803251F78093E3019B
:100BC00014C0803409F49BC040F48033B9F38833F7
:100BD000F9F68093E30185ECAEC0803509F483C05B
:100BE000883509F494C0883499F60E948B04D0CFDC
:100BF000883909F48AC038F5883729F050F48836E6
:100C000011F0803729F683E08093E4011092E2012D
:100C100055C0883809F479C0803919F0803809F056
:100C2000B7CF8091E201803208F06FC0E091E2011D
:100C300081E08E0F8093E2018091BB00F0E0EE53E3
:100C4000FE4F80833BC0803B39F0D0F4803A09F4FA
:100C500077C0883A09F09CCF84E08093E401109239
:100C6000C1011092C001F0E0E0E009958091C0015F
:100C700081110FC081E08093C0011092A00109C0D2
:100C8000803C09F4A8CF883C09F4A5CF883B09F043
:100C90007FCFE091C10181E08E0F8093C101F0E030
:100CA000E056FE4F80818093BB009091C1018091FE
:100CB000C00129C0809109028093BB0085EC80931C
:100CC000BC0066CF9091080280910702981758F5F2
:100CD000E091080281E08E0F80930802F0E0E95174
:100CE000FE4F8081E9CFE091080281E08E0F809372
:100CF00008028091BB00F0E0E951FE4F80839091A3
:100D00000802809107029817C8F285E8D8CFE091D1
:100D1000080281E08E0F809308028091BB00F0E012
:100D2000E951FE4F80838091E60181115ECF81E021
:100D30008093E50184EA8093BC001092E40128CFFF
:100D400085EC8093BC001092E4018091E201803236
:100D500030F4E091E201F0E0EE53FE4F108260913A
:100D6000E20170E082EC91E0F0E0E0E009951092A1
:100D7000E2010ECF1092E30138CF1F920F920FB60F
:100D80000F9211242F933F934F935F936F937F9311
:100D90008F939F93AF93BF93CF93DF93EF93FF9383
:100DA00080919801C091D802D0E087FF24C01092B2
:100DB000850010928400809198018F5F8093980144
:100DC00080919801082E000C990B8C179D0724F434
:100DD000809198018C30C4F18091840090918500BD
:100DE000049680349C4908F47AC0809184009091E4
:100DF0008500049676C080919801082E000C990B0E
:100E00008C179D07C4F6E09198018E2FEE0F990B79
:100E1000FC01EE0FFF1FE80FF91FEC54FD4F80811E
:100E200086FFC9CFE09198018E2FEE0F990BFC0140
:100E3000EE0FFF1FE80FF91FEC54FD4F808160E0BB
:100E40008F730E942201B7CF2091840030918500DA
:100E5000E09198018E2FEE0F990BFC01EE0FFF1F12
:100E6000E80FF91FEC54FD4F81819281820F931F8F
:100E70009093890080938800E09198018E2FEE0F67
:100E8000990BFC01EE0FFF1FE80FF91FEC54FD4F0B
:100E9000808186FF11C0E09198018E2FEE0F990B93
:100EA000FC01EE0FFF1FE80FF91FEC54FD4F80818E
:100EB00061E08F730E942201FF91EF91DF91CF914A
:100EC000BF91AF919F918F917F916F915F914F9162
:100ED0003F912F910F900FBE0F901F90189580E4B7
:100EE0009CE990938900809388008FEF809398010C
:100EF000E3CFCF9310921A021092190288EE93E07A
:100F0000A0E0B0E080931B0290931C02A0931D020E
:100F1000B0931E0284E091E0909318028093170230
:100F200085EC90E0909324028093230284EC90E07F
:100F3000909326028093250280EC90E09093280203
:100F40008093270281EC90E090932A0280932902FB
:100F500082EC90E090932C0280932B0286EC90E040
:100F600090932E0280932D02109230021092310243
:100F700010923202109233021092DF021092DE02BF
:100F800086E191E09093DD028093DC0287E080931C
:100F9000E002CFEFC093E10286E08093E20285E0B9
:100FA0008093E30284E08093E40283E08093E5028F
:100FB00082E08093E6021092E7021092E80210921B
:100FC000E9021092EA021092EB0281E00E94CB0348
:100FD0008091D8028C30A0F491E0980F9093D802C1
:100FE0008093D90290E0FC01EE0FFF1FE80FF91F7C
:100FF000EC54FD4F88EB9BE092838183CF91089561
:10100000C093D902FBCFCF93DF93CDB7DEB7A197C3
:101010000FB6F894DEBF0FBECDBF789484B5826062
:1010200084BD84B5816084BD85B5826085BD85B58C
:10103000816085BD80916E00816080936E0010920A
:101040008100809181008260809381008091810085
:101050008160809381008091800081608093800016
:101060008091B10084608093B1008091B000816074
:101070008093B00080917A00846080937A008091A0
:101080007A00826080937A0080917A0081608093F8
:101090007A0080917A00806880937A001092C10073
:1010A000E0912702F091280282E08083E091230200
:1010B000F09124021082E0912502F09126028FEC3B
:1010C000808310922F02E0912B02F0912C0286E097
:1010D0008083E0912902F0912A02808180618083DF
:1010E000E0912902F0912A02808188608083E0915A
:1010F0002902F0912A02808180688083E091290290
:10110000F0912A0280818F7D808382E00E94CB0350
:101110008091D9028C3008F050C089E00E9487008D
:101120008091D902282F30E0F901EE0FFF1FE20F66
:10113000F31FEC54FD4F9081907C99609083109246
:10114000DA021092DB022CE0622F0E94F90A829FE1
:10115000B001112430E020E0AB01420F531FFA012F
:10116000EE0FFF1FE40FF51FEC54FD4F908196FD2D
:1011700016C02F5F3F4F2C30310571F781110FC022
:101180001092800082E0809381001092850010927E
:101190008400B19A80916F00826080936F00E0912B
:1011A000D9028E2F90E0FC01EE0FFF1FE80FF91F10
:1011B000EC54FD4F8081806480830E94C30380E0F3
:1011C0000E9468046EE171E08CED92E00E947C0464
:1011D00081E00E9468046CE271E08CED92E00E9474
:1011E0007C0468E873E180E090E00E94930180E471
:1011F000782E9AE0892E912CA12CB12C00E010E0E1
:1012000070927C0080917A00806480937A00809153
:101210007A0086FDFCCFC0907800D0907900D09203
:101220000D02C0920C020D2C000CEE08FF08F7FE18
:1012300082C06DE287E192E00E9465022227332797
:10124000A9012C193D094E095F0919A2CE01819609
:101250007C01CA01B901A50194010E94C80A605D20
:10126000F70162937F01211531054105510589F789
:10127000E114F10429F0B70187E192E00E947C04B7
:101280006AE371E087E192E00E947C0480910C02A5
:1012900090910D0281329340ACF084EB90E00E947B
:1012A000A6000E94C30380E00E9468046DE371E021
:1012B0008CED92E00E947C0468EE73E080E090E0A8
:1012C0000E94930180910C0290910D0289559240E9
:1012D000883C910508F068C06AE471E08CED92E00A
:1012E0000E947C0480E00E94680467E571E08CED58
:1012F00092E00E947C0481E00E94680484EB90E00C
:1013000090930B0280930A02E0900A02F0900B0285
:10131000F7FC27C0C7010E94A60063E070E080E0F0
:1013200090E00E94930121E0E21AF108F0920B0292
:10133000E0920A02E9CFA701960119A2CE01819697
:101340007C01CA01B901A50194010E94C80A605D2F
:10135000F70162937F01211531054105510589F798
:1013600087CF10920B0210920A02E0900A02F090CE
:101370000B0285EBE816F1048CF4C7010E94A6006D
:1013800063E070E080E090E00E9493019FEFE91A33
:10139000F90AF0920B02E0920A02E7CF60ED77E0E3
:1013A00080E090E00E94930180910C0290910D02E8
:1013B0008D5C91408C38910508F052C080E00E940D
:1013C000680465E671E08CED92E00E947C0481E0A7
:1013D0000E94680466E771E08CED92E00E947C0454
:1013E00084EB90E090930B0280930A02E0900A0253
:1013F000F0900B02F7FC11C0C7010E94A60063E049
:1014000070E080E090E00E949301E1E0EE1AF108C4
:10141000F0920B02E0920A02E9CF10920B021092B6
:101420000A02E0900A02F0900B02F5EBEF16F104CD
:101430008CF4C7010E94A60063E070E080E090E0B9
:101440000E9493012FEFE21AF20AF0920B02E0924F
:101450000A02E7CF68EE73E080E090E00E9493011B
:1014600080910C0290910D028C3C91400CF052C086
:1014700080E00E94680465E671E08CED92E00E94D5
:101480007C0481E00E94680466E871E08CED92E0E3
:101490000E947C0484EB90E090930B0280930A02FC
:1014A000E0900A02F0900B02F7FC11C0C7010E9405
:1014B000A60063E070E080E090E00E949301F1E01C
:1014C000EF1AF108F0920B02E0920A02E9CF1092B3
:1014D0000B0210920A02E0900A02F0900B0225EB38
:1014E000E216F1048CF4C7010E94A60063E070E0EC
:1014F00080E090E00E9493018FEFE81AF80AF092E2
:101500000B02E0920A02E7CF64E670E080E090E030
:101510000E9493010115110509F472CE0E942F0259
:10152000882309F46DCE0E9400006ACE052E97FB39
:101530001EF400940E94AD0A57FD07D00E94C80A0D
:1015400007FC03D04EF40C94AD0A509540953095AD
:1015500021953F4F4F4F5F4F08959095809570951F
:1015600061957F4F8F4F9F4F08950E94EA0AA59F74
:10157000900DB49F900DA49F800D911D112408958E
:10158000B7FF0C94B50A0E94B50A821B930B08950D
:10159000A1E21A2EAA1BBB1BFD010DC0AA1FBB1F77
:1015A000EE1FFF1FA217B307E407F50720F0A21BE9
:1015B000B30BE40BF50B661F771F881F991F1A9456
:1015C00069F760957095809590959B01AC01BD0180
:1015D000CF010895A29FB001B39FC001A39F700DDA
:1015E000811D1124911DB29F700D811D1124911D2B
:1015F0000895991B79E004C0991F961708F0961B6F
:10160000881F7A95C9F780950895EE0FFF1F059002
:0A161000F491E02D0994F894FFCF47
:10161A00000000006502C501F201B20223020102C4
:10162A001502000000007604C5012403D20220201E
:10163A00204155544F4D4154494320002020204316
:10164A00415220574950455220000D0A00202020BF
:10165A00204E4F205241494E2000414D4F554E5485
:10166A003A204C4F572000495420495320524149AF
:10167A004E494E47004954204953205241494E4948
:10168A004E4720202000414D4F554E543A204D459B
:10169A004449554D2000414D4F554E543A20484932
:0816AA00474820202020000029
:00000001FF
